:1000000019C033C032C031C030C02FC02EC02DC087
:100010002CC02BC02AC029C028C027C026C025C09C
:1000200024C023C024C1B6C020C01FC01EC01DC034
:100030001CC01BC011241FBECFEFD4E0DEBFCDBF5C
:1000400011E0A0E0B1E0ECE4FCE002C005900D920C
:10005000A831B107D9F711E0A8E1B1E001C01D92C4
:10006000A033B107E1F777D5EFC5CACFDF93CF93C0
:100070000F92CDB7DEB7982F198203C089818F5FA9
:10008000898389818917D0F30F90CF91DF910895EB
:10009000DF93CF9300D0CDB7DEB7982F19820BC076
:1000A0001A8203C08A818F5F8A838A818F3FD1F74A
:1000B00089818F5F89838981891790F30F900F90D1
:1000C000CF91DF910895DF93CF9300D0CDB7DEB706
:1000D000982F198243C01A8203C08A818F5F8A8356
:1000E0008A818F3FD1F71A8203C08A818F5F8A830A
:1000F0008A818F3FD1F71A8203C08A818F5F8A83FA
:100100008A818F3FD1F71A8203C08A818F5F8A83E9
:100110008A818332D0F31A8203C08A818F5F8A83F7
:100120008A818F3FD1F71A8203C08A818F5F8A83C9
:100130008A818F3FD1F71A8203C08A818F5F8A83B9
:100140008A818F3FD1F71A8203C08A818F5F8A83A9
:100150008A818332D0F389818F5F8983898189176E
:1001600008F4B9CF0F900F90CF91DF910895209AA6
:1001700080FF02C0289A0895289808951F93182F89
:10018000F894812FA0DF209A289880E89CDF209A9D
:10019000289AF7CF1F920F920FB60F9211248F93C8
:1001A0009F93EF93FF9390912F0180912E019817C9
:1001B000B9F04C991AC0E0912E01F0E0E85EFE4FD4
:1001C00086818093C60080912E018F3018F01092A6
:1001D0002E010BC080912E018F5F80932E0105C0F0
:1001E0008091C1008F7D8093C100FF91EF919F911D
:1001F0008F910F900FBE0F901F90189550E034C054
:1002000080912F018F3088F080912E01882339F161
:10021000E0912F01F0E0E85EFE4FDB01A50FB11D7C
:100220008C91868310922F0119C020912E0180910C
:100230002F0130E090E001962817390781F0E09116
:100240002F01F0E0E85EFE4FDB01A50FB11D8C91A0
:10025000868380912F018F5F80932F015F5F809154
:10026000C10080628093C100541750F208951F921C
:100270000F920FB60F9211248F93EF93FF935B9A17
:10028000E0911C018091C600F0E0E85EFE4F8083A3
:1002900080911C01833018F010921C0105C08091E0
:1002A0001C018F5F80931C01FF91EF918F910F9044
:1002B0000FBE0F901F901895CF93DF93EB018091A5
:1002C000C00084FF02C088E059DF8091C00083FF36
:1002D00002C080E453DF90911D0180911C019817AA
:1002E000B1F0E0911D01F0E0E85EFE4F808188836F
:1002F00080911D01833018F010921D0105C080917E
:100300001D018F5F80931D015B9881E002C05B98A7
:1003100080E0DF91CF91089510922E0110922F016D
:10032000ECE1F1E011921082E0ECF0E08081877E58
:1003300080830895F8945B985A9A88ECC4DE5A98A2
:1003400088ECC1DE88ECBFDE88ECBDDE10922E01A9
:1003500010922F01ECE1F1E011921082E0ECF0E05C
:100360008081877E808378940895F8941092640049
:100370005A9A529A58985098599A519A5B9A539A05
:1003800054985C9822E02093C00028EB2093C10091
:1003900026E02093C200E4ECF0E029E130E0318374
:1003A000208323E330E031832083C4DF789480E02E
:1003B0000895DBDF08950895FC011182158E148ED7
:1003C00011A210A2178E168E10820895FC011182C0
:1003D000158E148E11A210A2178E168E1082C5DFF4
:1003E00008950895DF92EF92FF920F931F93DF938A
:1003F000CF9300D000D000D0CDB7DEB7E82ED92EF5
:100400008A01F22E81E089837B836A832C838E2D7F
:10041000BE016F5F7F4F44E0F1DE8E2D9D2DB80150
:100420004F2DECDE26960FB6F894DEBF0FBECDBF83
:10043000CF91DF911F910F91FF90EF90DF90089582
:100440000F931F93DF93CF930F92CDB7DEB78C013D
:10045000DC018C9184FF10C011961C9211975D965F
:100460001C921E925C9791961C921E9290975F969A
:100470001C921E925E971C92C801BE016F5F7F4F57
:100480001BDF882309F4F9C0F8018181882341F139
:10049000848D958D892B21F1868D978D0196978F6F
:1004A000868F80A191A1479788F400A0F1A1E02D4B
:1004B0008981E00FF11F8483D80190968D919C91E2
:1004C0009197019691969C938E939097F801268D23
:1004D000378D848D958D2817390708F4CEC094C0C8
:1004E000D80190968D919C919197019691969C93AD
:1004F0008E93909711968C91843030F4823008F06E
:1005000041C0882329F0B9C0843009F0B6C01CC0AE
:100510009981892F8150843028F4F8019183158EB8
:10052000148EABC0D80111961C9211975D961C9247
:100530001E925C9791961C921E9290975F961C92C9
:100540001E925E971C9299C0F80180A191A1823001
:10055000910521F0039709F08AC008C0898190E0D5
:10056000D80113969C938E93129787C0F801178E2B
:10057000168E11A210A2158E148E8981882309F07F
:1005800048C042C0D80190968D919C91919783303C
:100590009105A1F08430910520F4029709F067C01D
:1005A00007C08430910519F1059709F060C03BC080
:1005B000898190E0F801938382835FC0D80112960D
:1005C0004D915C9113972981922F80E080709F70EC
:1005D000842B952B13969C938E9312978C91807FEE
:1005E0008C938C9122952F70282B2C9346C0F80168
:1005F000818199818330A1F4178E168E11A210A2E9
:10060000158E148E992321F48081806180832DC002
:10061000892F90E0D8015D969C938E935C972DC0B6
:10062000F80194832AC0D8015F961C921E925E97AF
:1006300091961C921E9290975D961C921E925C97CA
:1006400014968C911497398120E090E0282B392B57
:100650005D963C932E935C975C968D919C915D97F3
:10066000892B59F48C9180618C9381E007C0F8014B
:100670001182178E168E11A210A280E00F90CF91DA
:10068000DF911F910F910895029663E07CE040E0B6
:1006900050E020E0A7DE0895DF93CF930F92CDB70F
:1006A000DEB723E0298302966AE17CE0AE014F5F6A
:1006B0005F4F21E097DE0F90CF91DF910895DF9398
:1006C000CF9300D00F92CDB7DEB722E029831A82F4
:1006D0002B83029665E07CE0AE014F5F5F4F23E025
:1006E00081DE0F900F900F90CF91DF910895AF9220
:1006F000BF92CF92EF920F931F93DF93CF93CDB71B
:10070000DEB72C970FB6F894DEBF0FBECDBF5C01ED
:1007100082E089837B836A838B8180628B838E2DC9
:1007200090E08C0D911D06969D838C83FE0136967C
:1007300004979F838E835383428335832483F501FB
:1007400080818160808382E090E0A80EB91EC5019F
:10075000BE016F5F7F4F4BE051DDC501B8014E2DEB
:100760004DDD2C960FB6F894DEBF0FBECDBFCF91F6
:10077000DF911F910F91EF90CF90BF90AF900895B0
:10078000CF92EF920F931F93CF93DF93EC01CB01A6
:10079000E42EC22E6CA17DA16115710511F480E0DB
:1007A00023C0FC014EA1423039F42FA138A5CE015F
:1007B00042E050E08F0116C0EE2021F4DC0120E081
:1007C00030E00DC0DC018D91282F30E0EA9439F043
:1007D000918180E0282B392BEA94DF011296CE011B
:1007E00050E08D0184DF81E0DF91CF911F910F9167
:1007F000EF90CF900895DF93CF9300D00F92CDB7B5
:10080000DEB77A83698323E12B83029666E07CE07E
:10081000AE014F5F5F4F23E0E5DD0F900F900F902B
:10082000CF91DF91089520E0FC0184A195A1892B4F
:1008300009F021E0822F0895FC018381882311F0C3
:1008400081E00895808181700895FC018481958103
:100850008E30910521F18F30910530F48330910570
:1008600079F0059781F515C08031910531F04397F6
:1008700051F580818E7F8083089580E87FDC089524
:100880008681882301F5878190859F7095A384A335
:10089000089586818823B9F415A214A2089587814A
:1008A00090852CE08530920739F02CE08A31920750
:1008B00039F083509C4039F481818F5F81830895A2
:1008C00081818F5F818308956F927F928F929F9233
:1008D000AF92BF92CF92EF920F931F93DF93CF937C
:1008E000CDB7DEB72A970FB6F894DEBF0FBECDBFE7
:1008F0004C01FAE06F2E712C680E791EFC01828586
:10090000843009F040C0F301318120E0256088E0A7
:1009100090E09A838983848195819C838B838681EF
:1009200097819E838D8318861F821A8619865E01A1
:100930000894A11CB11CF40164A175A146A1C401D5
:1009400050E08501EAE0EE2ECC24D1DEF3012181D6
:1009500030E02F5F3F4F322F2227246084E090E069
:100960009A838983848195819C838B8386819781F7
:100970009E838D83F40164A175A146A1C40150E05A
:10098000A6E0EA2E53C0823021F5F30184819581DF
:10099000F40190A787A3F301318120E0236088E070
:1009A00090E09A838983868197819C838B839E8341
:1009B0008D8318861F821A861986F40164A175A199
:1009C00046A1C40150E08E010F5F1F4FFAE0EF2EE9
:1009D0002CC08A3079F4F301318120E02B6084E06F
:1009E00090E09A838983848195819C838B831E8286
:1009F0001D8210C08630D9F4F301318120E02760D8
:100A000084E090E09A838983868197819C838B839D
:100A10009E838D83F40164A175A146A1C40150E0B9
:100A20008E010F5F1F4FE6E0EE2ECC2460DE2A968B
:100A30000FB6F894DEBF0FBECDBFCF91DF911F91EF
:100A40000F91EF90CF90BF90AF909F908F907F903D
:100A50006F900895FC01DC01169612969C911297F6
:100A600096A3913021F4CF012FDF80E0089522A1D9
:100A700033A1923029F0DF011A96822F84500BC0E7
:100A800014968D919C91159790A787A3DF011C96D2
:100A900082A193A18650982F481708F4942F20E044
:100AA00030E007C0FB01E20FF31F8D9180832F5FC1
:100AB0003F4F2917B8F3892F0895FC0181818330B6
:100AC00069F0843018F4882331F00895853061F09E
:100AD0008730A9F40FC083E08183089581818F5FFF
:100AE0008183CF01D1DD089581818F5F8183CF0123
:100AF000E6DD089581818F5F8183CF01CDDD08958B
:100B0000FF920F931F93CF93DF93EC018B01F42E91
:100B1000D4DFCE01029694DC882369F08B81823089
:100B200029F0843041F4CE0190DE05C0CE01B80139
:100B30004F2D90DF01C080E0DF91CF911F910F9189
:100B4000FF900895FC01118215A214A21082029652
:100B50003DDC08950895DF92EF92FF920F931F936B
:100B6000DF93CF93CDB7DEB7E9970FB6F894DEBF2A
:100B70000FBECDBF89E228E130E00FB6F894A8950A
:100B8000209360000FBE809360008E010F5E1F4FA8
:100B9000C801D8DF209A289AFF24D02EE12E8E019A
:100BA0000F5F1F4FA8958D2D9E2DB80140E1A8DF46
:100BB000882369F1C80160E071E045E050E037D07A
:100BC000009751F4D801E6E0F1E085E001900D9244
:100BD0008150E1F7B5E0FB2EC8016CE071E044E024
:100BE00050E025D0009799F48D81813319F4209A33
:100BF000289A02C0209A2898D801E1E1F1E085E026
:100C000001900D928150E1F7A5E0FA2E02C0FF207D
:100C100049F28C89882331F6898980FDC3CF8D2DD7
:100C20009E2DB8014F2D20E0ABDDFF24BBCFFB0193
:100C3000DC0104C08D910190801921F44150504095
:0C0C4000C8F7881B990B0895F894FFCFAB
:100C4C0048656C6C6F00576F726C64004C45443A8D
:080C5C00004C45443A4E000033
:00000001FF
