:1000000019C033C032C031C030C02FC02EC02DC087
:100010002CC02BC02AC029C028C027C026C025C09C
:1000200024C023C009C19BC020C01FC01EC01DC06A
:100030001CC01BC011241FBECFEFD4E0DEBFCDBF5C
:1000400011E0A0E0B1E0E8E5FBE002C005900D9210
:10005000A831B107D9F711E0A8E1B1E001C01D92C4
:10006000A033B107E1F7FDD475C5CACFDF93CF93B5
:100070000F92CDB7DEB7982F198203C089818F5FA9
:10008000898389818917D0F30F90CF91DF910895EB
:10009000DF93CF9300D0CDB7DEB7982F198243C03E
:1000A0001A8203C08A818F5F8A838A818F3FD1F74A
:1000B0001A8203C08A818F5F8A838A818F3FD1F73A
:1000C0001A8203C08A818F5F8A838A818F3FD1F72A
:1000D0001A8203C08A818F5F8A838A818332D0F338
:1000E0001A8203C08A818F5F8A838A818F3FD1F70A
:1000F0001A8203C08A818F5F8A838A818F3FD1F7FA
:100100001A8203C08A818F5F8A838A818F3FD1F7E9
:100110001A8203C08A818F5F8A838A818332D0F3F7
:1001200089818F5F89838981891708F4B9CF0F90FE
:100130000F90CF91DF910895209A80FF02C0289AF6
:100140000895289808951F93182FF894812FA0DF01
:10015000209A289880E89CDF209A289AF7CF1F924F
:100160000F920FB60F9211248F939F93EF93FF93EB
:1001700090912F0180912E019817B9F04C991AC0D7
:10018000E0912E01F0E0E85EFE4F86818093C6008C
:1001900080912E018F3018F010922E010BC08091AB
:1001A0002E018F5F80932E0105C08091C1008F7D4D
:1001B0008093C100FF91EF919F918F910F900FBE9F
:1001C0000F901F90189550E034C080912F018F3010
:1001D00088F080912E01882339F1E0912F01F0E021
:1001E000E85EFE4FDB01A50FB11D8C918683109256
:1001F0002F0119C020912E0180912F0130E090E055
:1002000001962817390781F0E0912F01F0E0E85EB0
:10021000FE4FDB01A50FB11D8C91868380912F01CC
:100220008F5F80932F015F5F8091C1008062809318
:10023000C100541750F208951F920F920FB60F92FB
:1002400011248F93EF93FF935B9AE0911C018091AF
:10025000C600F0E0E85EFE4F808380911C01833091
:1002600018F010921C0105C080911C018F5F8093D3
:100270001C01FF91EF918F910F900FBE0F901F9077
:100280001895CF93DF93EB018091C00084FF02C0EB
:1002900088E059DF8091C00083FF02C080E453DF13
:1002A00090911D0180911C019817B1F0E0911D0102
:1002B000F0E0E85EFE4F8081888380911D018330ED
:1002C00018F010921D0105C080911D018F5F809371
:1002D0001D015B9881E002C05B9880E0DF91CF91C7
:1002E000089510922E0110922F01ECE1F1E011928D
:1002F0001082E0ECF0E08081877E80830895F8949E
:100300005B985A9A88ECC4DE5A9888ECC1DE88EC77
:10031000BFDE88ECBDDE10922E0110922F01ECE1C1
:10032000F1E011921082E0ECF0E08081877E808322
:1003300078940895F894109264005A9A529A5898B2
:100340005098599A519A539A5B9A54985C9822E023
:100350002093C00028EB2093C10026E02093C20028
:10036000E4ECF0E029E130E03183208323E330E066
:1003700031832083C4DF789480E00895DBDF089523
:100380000895FC011182158E148E11A210A2178EF1
:10039000168E108208950F931F938C01CBDFF80106
:1003A0001182158E148E11A210A2178E168E108235
:1003B0001F910F9108950895DF92EF92FF920F938E
:1003C0001F93DF93CF9300D000D000D0CDB7DEB71E
:1003D000E82ED92E8A01F22E81E089837B836A83FD
:1003E0002C838E2DBE016F5F7F4F44E0ECDE8E2D9F
:1003F0009D2DB8014F2DE7DE26960FB6F894DEBF8F
:100400000FBECDBFCF91DF911F910F91FF90EF9065
:10041000DF9008950F931F93DF93CF930F92CDB783
:10042000DEB78C01FC01808184FF08C01182158E2B
:10043000148E11A210A2178E168E1082C801BE0152
:100440006F5F7F4F1EDF882309F4A1C0F80181810F
:10045000882309F1848D958D892BE9F0868D978D00
:100460000196978F868F20A131A12731310548F45D
:10047000E20FF31F898184832F5F3F4FF80131A37F
:1004800020A3F801268D378D848D958D2817390787
:1004900008F47DC077C0F80180A191A1019691A3D5
:1004A00080A32181243028F4223040F5222329F032
:1004B0006EC0243009F06BC014C09981892F81501F
:1004C000843028F4F8019183158E148E60C0F801F1
:1004D0001182158E148E11A210A2178E168E108204
:1004E00056C082309105D1F0039709F050C0F80151
:1004F000178E168E11A210A2898130C0833091050B
:1005000091F08430910520F4029709F040C006C0B4
:1005100084309105D9F00597D1F525C08981F8017E
:100520008283138234C04981942F80E080709F7051
:10053000F80122813381282B392B33832283429582
:100540004F708081807F482B408321C08981233078
:1005500039F4F801178E168E11A210A290E00EC089
:10056000F801848314C0F801178E168E11A210A210
:10057000398120E0848190E0822B932B958F848FAA
:10058000892B29F480818061808381E001C080E033
:100590000F90CF91DF911F910F910895029663E024
:1005A0007CE040E050E020E007DF0895DF93CF9348
:1005B0000F92CDB7DEB723E0298302966AE17CE093
:1005C000AE014F5F5F4F21E0F7DE0F90CF91DF91DB
:1005D0000895DF93CF9300D00F92CDB7DEB722E01E
:1005E00029831A822B83029665E07CE0AE014F5F7F
:1005F0005F4F23E0E1DE0F900F900F90CF91DF91DE
:100600000895AF92BF92CF92EF920F931F93DF9313
:10061000CF93CDB7DEB72C970FB6F894DEBF0FBEE1
:10062000CDBF5C0182E089837B836A838B8180629A
:100630008B838E2D90E08C0D911D06969D838C836F
:10064000FE01369604979F838E83538342833583BE
:100650002483F50180818160808382E090E0A80E90
:10066000B91EC501BE016F5F7F4F4BE0ACDDC50118
:10067000B8014E2DA8DD2C960FB6F894DEBF0FBE44
:10068000CDBFCF91DF911F910F91EF90CF90BF9091
:10069000AF900895CF92EF920F931F93CF93DF9374
:1006A000EC01CB01E42EC22E6CA17DA12FEF6F3F98
:1006B000720711F480E023C0FC014EA1423039F4EE
:1006C0002FA138A5CE0142E050E08F0116C0EE20E8
:1006D00021F4DC0120E030E00DC0DC018D91282FF9
:1006E00030E0EA9439F0918180E0282B392BEA94AC
:1006F000DF011296CE0150E08D0183DF81E0DF91B2
:10070000CF911F910F91EF90CF900895DF93CF93EA
:1007100000D00F92CDB7DEB77A83698323E12B83B4
:10072000029666E07CE0AE014F5F5F4F23E044DE5F
:100730000F900F900F90CF91DF91089520E0FC0172
:1007400084A195A18F5F9F4F09F021E0822F08952A
:10075000FC018381882311F081E0089580818170FC
:100760000895FC01848195818E30910521F18F30AF
:10077000910530F48330910579F0059781F513C028
:100780008031910531F0439751F580818E7F8083D0
:10079000089580E8D8DC08958681882301F5878153
:1007A00090859E7005C086818823C9F48FEF9FEFE6
:1007B00095A384A30895878190852CE085309207C6
:1007C00039F02CE08A31920739F083509C4039F49B
:1007D00081818F5F8183089581818F5F81830895F7
:1007E0006F927F928F929F92AF92BF92CF92EF9231
:1007F0000F931F93DF93CF93CDB7DEB72A970FB632
:10080000F894DEBF0FBECDBF4C01FAE06F2E712C05
:10081000680E791EFC018285843009F040C0F30126
:10082000318120E0256088E090E09A83898384818B
:1008300095819C838B83868197819E838D83188687
:100840001F821A8619865E010894A11CB11CF4014E
:1008500064A175A146A1C40150E08501EAE0EE2E35
:10086000CC24CFDEF301218130E02F5F3F4F322FC8
:100870002227246084E090E09A8389838481958193
:100880009C838B83868197819E838D83F40164A1F1
:1008900075A146A1C40150E0A6E0EA2E53C0823003
:1008A00021F5F30184819581F40190A787A3F301D9
:1008B000318120E0236088E090E09A8389838681FB
:1008C00097819C838B839E838D8318861F821A86D3
:1008D0001986F40164A175A146A1C40150E08E01FE
:1008E0000F5F1F4FFAE0EF2E2CC08A3079F4F3012E
:1008F000318120E02B6084E090E09A8389838481B9
:1009000095819C838B831E821D8210C08630D9F412
:10091000F301318120E0276084E090E09A838983AD
:10092000868197819C838B839E838D83F40164A150
:1009300075A146A1C40150E08E010F5F1F4FE6E094
:10094000EE2ECC245EDE2A960FB6F894DEBF0FBEE4
:10095000CDBFCF91DF911F910F91EF90CF90BF90BE
:10096000AF909F908F907F906F900895FC0180854D
:1009700086A3813021F4CF0133DF80E0089522A1E6
:10098000823041F48285938590A787A3CF010C968E
:10099000265003C0CF010A962450522F421708F464
:1009A000542FDC0120E030E007C0FB01E20FF31F11
:1009B0008D9180832F5F3F4F2517B8F3852F0895C2
:1009C000FC018181833069F0843018F4882331F090
:1009D0000895853061F08730A9F40FC083E08183EA
:1009E000089581818F5F8183CF01D8DD0895818152
:1009F0008F5F8183CF01EDDD089581818F5F8183DA
:100A0000CF01D4DD0895FF920F931F93CF93DF930F
:100A1000EC018B01F42ED4DFCE010296FBDC88239F
:100A200069F08B81823029F0843041F4CE0199DE67
:100A300005C0CE01B8014F2D99DF01C080E0DF91E4
:100A4000CF911F910F91FF900895FC0111828FEFBC
:100A50009FEF95A384A31082CF0102969CDC08959A
:100A60000895DF92EF92FF920F931F93DF93CF933E
:100A7000CDB7DEB7E9970FB6F894DEBF0FBECDBF96
:100A800089E228E130E00FB6F894A8952093600041
:100A90000FBE809360008E010F5E1F4FC801D5DF2F
:100AA000209A289AFF24D02EE12E8E010F5F1F4F2F
:100AB000A8958D2D9E2DB80140E1A5DF882369F111
:100AC000C80160E071E045E050E037D0009751F494
:100AD000D801E6E0F1E085E001900D928150E1F768
:100AE000B5E0FB2EC8016CE071E044E050E025D099
:100AF000009799F48D81813319F4209A289A02C0C5
:100B0000209A2898D801E1E1F1E085E001900D926A
:100B10008150E1F7A5E0FA2E02C0FF2049F28C894E
:100B2000882331F6898980FDC3CF8D2D9E2DB80194
:100B30004F2D20E0AFDDFF24BBCFFB01DC0104C063
:100B40008D910190801921F441505040C8F7881BC5
:080B5000990B0895F894FFCF02
:100B580048656C6C6F00576F726C64004C45443A82
:080B6800004C45443A4E000028
:00000001FF
